{
  "contractName": "AccessLogger",
  "abi": [
    {
      "constant": false,
      "inputs": [
        {
          "name": "_credentials",
          "type": "string[]"
        },
        {
          "name": "_SAD",
          "type": "string"
        },
        {
          "name": "_timestamp",
          "type": "uint256"
        }
      ],
      "name": "registerAccessRequest",
      "outputs": [],
      "payable": false,
      "stateMutability": "nonpayable",
      "type": "function"
    },
    {
      "constant": false,
      "inputs": [
        {
          "name": "_toSign",
          "type": "string[]"
        },
        {
          "name": "_SAD",
          "type": "string"
        },
        {
          "name": "_signatures",
          "type": "string[]"
        },
        {
          "name": "_timestamp",
          "type": "uint256"
        }
      ],
      "name": "registerSignRequest",
      "outputs": [],
      "payable": false,
      "stateMutability": "nonpayable",
      "type": "function"
    }
  ],
  "bytecode": "0x608060405234801561001057600080fd5b5061085d806100206000396000f3fe608060405260043610610046576000357c0100000000000000000000000000000000000000000000000000000000900480632ae0d6151461004b5780637af1544b14610074575b600080fd5b34801561005757600080fd5b50610072600480360361006d91908101906106de565b61009d565b005b34801561008057600080fd5b5061009b60048036036100969190810190610633565b6101fe565b005b600082511180156100af575060008351115b156101f957600260003373ffffffffffffffffffffffffffffffffffffffff1673ffffffffffffffffffffffffffffffffffffffff16815260200190815260200160002060606040519081016040528085815260200184815260200160408051908101604052804281526020018581525081525090806001815401808255809150509060018203906000526020600020906004020160009091929091909150600082015181600001908051906020019061016a929190610384565b5060208201518160010190805190602001906101879291906103e4565b50604082015181600201600082015181600001556020820151816001015550505050506000803373ffffffffffffffffffffffffffffffffffffffff1673ffffffffffffffffffffffffffffffffffffffff168152602001908152602001600020600081548092919060010191905055505b505050565b60008351118015610210575060008451115b1561037e57600360003373ffffffffffffffffffffffffffffffffffffffff1673ffffffffffffffffffffffffffffffffffffffff1681526020019081526020016000206080604051908101604052808681526020018581526020018481526020016040805190810160405280428152602001858152508152509080600181540180825580915050906001820390600052602060002090600502016000909192909190915060008201518160000190805190602001906102d1929190610384565b5060208201518160010190805190602001906102ee9291906103e4565b50604082015181600201908051906020019061030b929190610384565b5060608201518160030160008201518160000155602082015181600101555050505050600160003373ffffffffffffffffffffffffffffffffffffffff1673ffffffffffffffffffffffffffffffffffffffff168152602001908152602001600020600081548092919060010191905055505b50505050565b8280548282559060005260206000209081019282156103d3579160200282015b828111156103d25782518290805190602001906103c29291906103e4565b50916020019190600101906103a4565b5b5090506103e09190610464565b5090565b828054600181600116156101000203166002900490600052602060002090601f016020900481019282601f1061042557805160ff1916838001178555610453565b82800160010185558215610453579182015b82811115610452578251825591602001919060010190610437565b5b5090506104609190610490565b5090565b61048d91905b80821115610489576000818161048091906104b5565b5060010161046a565b5090565b90565b6104b291905b808211156104ae576000816000905550600101610496565b5090565b90565b50805460018160011615610100020316600290046000825580601f106104db57506104fa565b601f0160209004906000526020600020908101906104f99190610490565b5b50565b600082601f830112151561051057600080fd5b813561052361051e8261078a565b61075d565b9150818183526020840193506020810190508360005b83811015610569578135860161054f8882610573565b845260208401935060208301925050600181019050610539565b5050505092915050565b600082601f830112151561058657600080fd5b8135610599610594826107b2565b61075d565b915080825260208301602083018583830111156105b557600080fd5b6105c0838284610814565b50505092915050565b600082601f83011215156105dc57600080fd5b81356105ef6105ea826107de565b61075d565b9150808252602083016020830185838301111561060b57600080fd5b610616838284610814565b50505092915050565b600061062b823561080a565b905092915050565b6000806000806080858703121561064957600080fd5b600085013567ffffffffffffffff81111561066357600080fd5b61066f878288016104fd565b945050602085013567ffffffffffffffff81111561068c57600080fd5b610698878288016105c9565b935050604085013567ffffffffffffffff8111156106b557600080fd5b6106c1878288016104fd565b92505060606106d28782880161061f565b91505092959194509250565b6000806000606084860312156106f357600080fd5b600084013567ffffffffffffffff81111561070d57600080fd5b610719868287016104fd565b935050602084013567ffffffffffffffff81111561073657600080fd5b610742868287016105c9565b92505060406107538682870161061f565b9150509250925092565b6000604051905081810181811067ffffffffffffffff8211171561078057600080fd5b8060405250919050565b600067ffffffffffffffff8211156107a157600080fd5b602082029050602081019050919050565b600067ffffffffffffffff8211156107c957600080fd5b601f19601f8301169050602081019050919050565b600067ffffffffffffffff8211156107f557600080fd5b601f19601f8301169050602081019050919050565b6000819050919050565b8281833760008383015250505056fea265627a7a72305820efb8ccbbd5ec228e85188077ae092549b48b3a05b399042d32d43ec144aedff96c6578706572696d656e74616cf50037",
  "source": "pragma solidity >=0.4.21 < 0.7.0;\r\npragma experimental ABIEncoderV2;\r\n\r\ncontract AccessLogger {\r\n\r\n    mapping(address => uint256) accessRequestCount;\r\n    mapping(address => uint256) signRequestCount;\r\n\r\n    struct RequestTime {\r\n        uint256 miningTime; //the timestamp at which the block was mined\r\n        uint256 requestTime; //the timestamp sent from client claiming request time\r\n    }\r\n\r\n    struct AccessRequest {\r\n        // address  signerAddress; //address of the account requesting access to credentials\r\n        string[] credentialIds; //credentials requesting access to\r\n        string   SAD;           //SAD - response from credentials/authorize request\r\n        // bool     granted;       //true if SAD is present - false otherwise\r\n        RequestTime timestamp;\r\n    }\r\n\r\n    struct SignRequest {\r\n        // address     signerAddress;  //address of the account requesting to sign\r\n        string[]    toSign;         //hashes to sign\r\n        string      SAD;            //SAD used to authorize signature - must match with Access Request SAD - cum?\r\n        string[]    signatures;     //signed hashes - response from signatures/signHash\r\n        RequestTime timestamp;\r\n    }\r\n\r\n    mapping(address => AccessRequest[]) accessRequests;\r\n    mapping(address => SignRequest[])   signRequests;\r\n\r\n    function registerAccessRequest(string[] memory _credentials, string memory _SAD, uint256  _timestamp) public {\r\n        if(bytes(_SAD).length > 0 && _credentials.length > 0) {\r\n            accessRequests[msg.sender].push(\r\n\r\n                AccessRequest({\r\n                    credentialIds: _credentials,\r\n                    SAD: _SAD,\r\n                    timestamp: RequestTime({\r\n                        miningTime: now,\r\n                        requestTime: _timestamp\r\n                        })\r\n                })\r\n\r\n            );\r\n            accessRequestCount[msg.sender]++;\r\n        }\r\n    }\r\n    function registerSignRequest(string[] memory _toSign, string memory _SAD, string[] memory _signatures, uint256  _timestamp) public {\r\n        if(bytes(_SAD).length > 0 && _toSign.length > 0) {\r\n            signRequests[msg.sender].push(\r\n                SignRequest({\r\n                    toSign: _toSign,\r\n                    SAD: _SAD,\r\n                    signatures: _signatures,\r\n                    timestamp: RequestTime({\r\n                        miningTime: now,\r\n                        requestTime: _timestamp\r\n                        })\r\n                })\r\n            );\r\n            signRequestCount[msg.sender]++;\r\n        }\r\n    }\r\n\r\n    // function set(string memory _greeting) public {\r\n    //     greeting = _greeting;\r\n    // }\r\n\r\n    // function get() public view returns (string memory){\r\n    //     return greeting;\r\n    // }\r\n} ",
  "sourcePath": "C:\\Stuff\\Projects\\Master\\client\\src\\main\\ui\\contracts\\AccessLogger.sol",
  "compiler": {
    "name": "solc",
    "version": "0.5.1+commit.c8a2cb62.Emscripten.clang"
  },
  "schemaVersion": "3.0.23",
  "updatedAt": "2020-02-04T16:10:26.154Z",
  "devdoc": {
    "methods": {}
  },
  "userdoc": {
    "methods": {}
  }
}