{
  "contractName": "CSCAccessLogger",
  "abi": [
    {
      "constant": true,
      "inputs": [
        {
          "name": "_credentialID",
          "type": "string"
        }
      ],
      "name": "getLastAccessRequest",
      "outputs": [
        {
          "name": "",
          "type": "uint256"
        }
      ],
      "payable": false,
      "stateMutability": "view",
      "type": "function"
    },
    {
      "constant": true,
      "inputs": [
        {
          "name": "_credentialID",
          "type": "string"
        },
        {
          "name": "_transactionID",
          "type": "string"
        }
      ],
      "name": "getLastAccessRequestTx",
      "outputs": [
        {
          "name": "",
          "type": "uint256"
        }
      ],
      "payable": false,
      "stateMutability": "view",
      "type": "function"
    },
    {
      "constant": true,
      "inputs": [
        {
          "name": "_credentialID",
          "type": "string"
        }
      ],
      "name": "getLastSignRequest",
      "outputs": [
        {
          "name": "",
          "type": "uint256"
        }
      ],
      "payable": false,
      "stateMutability": "view",
      "type": "function"
    },
    {
      "constant": true,
      "inputs": [
        {
          "name": "_transactionID",
          "type": "string"
        }
      ],
      "name": "getSignRequest",
      "outputs": [
        {
          "name": "",
          "type": "uint256"
        }
      ],
      "payable": false,
      "stateMutability": "view",
      "type": "function"
    },
    {
      "constant": true,
      "inputs": [
        {
          "name": "_credentialId",
          "type": "string"
        }
      ],
      "name": "getAllAccessRequests",
      "outputs": [
        {
          "name": "",
          "type": "uint256[]"
        }
      ],
      "payable": false,
      "stateMutability": "view",
      "type": "function"
    },
    {
      "constant": true,
      "inputs": [
        {
          "name": "_credentialId",
          "type": "string"
        }
      ],
      "name": "getAllTx",
      "outputs": [
        {
          "name": "",
          "type": "string"
        }
      ],
      "payable": false,
      "stateMutability": "view",
      "type": "function"
    },
    {
      "constant": false,
      "inputs": [
        {
          "name": "_credentialID",
          "type": "string"
        },
        {
          "name": "_hashes",
          "type": "string"
        },
        {
          "name": "_transactionID",
          "type": "string"
        },
        {
          "name": "_timestamp",
          "type": "uint256"
        }
      ],
      "name": "registerAccessRequest",
      "outputs": [],
      "payable": false,
      "stateMutability": "nonpayable",
      "type": "function"
    },
    {
      "constant": false,
      "inputs": [
        {
          "name": "_transactionID",
          "type": "string"
        },
        {
          "name": "_signatures",
          "type": "string"
        },
        {
          "name": "_timestamp",
          "type": "uint256"
        }
      ],
      "name": "registerSignRequest",
      "outputs": [],
      "payable": false,
      "stateMutability": "nonpayable",
      "type": "function"
    }
  ],
  "bytecode": "0x608060405234801561001057600080fd5b506116a2806100206000396000f3fe608060405260043610610088576000357c0100000000000000000000000000000000000000000000000000000000900480630505186c1461008d578063159fc616146100ca5780634334cb8d1461010757806359b7953d146101445780638a26d96b1461016d578063c8a6bd2e146101aa578063ca58aeca146101e7578063cb9504c914610224575b600080fd5b34801561009957600080fd5b506100b460048036036100af91908101906112a2565b61024d565b6040516100c19190611519565b60405180910390f35b3480156100d657600080fd5b506100f160048036036100ec91908101906112e3565b61042c565b6040516100fe919061155d565b60405180910390f35b34801561011357600080fd5b5061012e600480360361012991908101906112a2565b6105cf565b60405161013b919061155d565b60405180910390f35b34801561015057600080fd5b5061016b600480360361016691908101906113fa565b610864565b005b34801561017957600080fd5b50610194600480360361018f91908101906112a2565b610947565b6040516101a1919061153b565b60405180910390f35b3480156101b657600080fd5b506101d160048036036101cc91908101906112a2565b610cc5565b6040516101de919061155d565b60405180910390f35b3480156101f357600080fd5b5061020e600480360361020991908101906112a2565b610d40565b60405161021b919061155d565b60405180910390f35b34801561023057600080fd5b5061024b6004803603610246919081019061134f565b610f65565b005b6060806000836040518082805190602001908083835b6020831015156102885780518252602082019150602081019050602083039250610263565b6001836020036101000a0380198251168184511680821785525050505050509050019150509081526020016040518091039020805490506040519080825280602002602001820160405280156102ed5781602001602082028038833980820191505090505b50905060008090505b6000846040518082805190602001908083835b60208310151561032e5780518252602082019150602081019050602083039250610309565b6001836020036101000a038019825116818451168082178552505050505050905001915050908152602001604051809103902080549050811015610422576000846040518082805190602001908083835b6020831015156103a4578051825260208201915060208101905060208303925061037f565b6001836020036101000a0380198251168184511680821785525050505050509050019150509081526020016040518091039020818154811015156103e457fe5b906000526020600020906004020160020160010154828281518110151561040757fe5b906020019060200201818152505080806001019150506102f6565b5080915050919050565b6000806002836040518082805190602001908083835b6020831015156104675780518252602082019150602081019050602083039250610442565b6001836020036101000a0380198251168184511680821785525050505050509050019150509081526020016040518091039020549050600080856040518082805190602001908083835b6020831015156104d657805182526020820191506020810190506020830392506104b1565b6001836020036101000a03801982511681845116808217855250505050505090500191505090815260200160405180910390208281548110151561051657fe5b90600052602060002090600402016002016001015414156105385760006105c6565b6000846040518082805190602001908083835b602083101515610570578051825260208201915060208101905060208303925061054b565b6001836020036101000a0380198251168184511680821785525050505050509050019150509081526020016040518091039020818154811015156105b057fe5b9060005260206000209060040201600201600101545b91505092915050565b600080600080846040518082805190602001908083835b60208310151561060b57805182526020820191506020810190506020830392506105e6565b6001836020036101000a038019825116818451168082178552505050505050905001915050908152602001604051809103902080549050146106be5760016000846040518082805190602001908083835b602083101515610681578051825260208201915060208101905060208303925061065c565b6001836020036101000a038019825116818451168082178552505050505050905001915050908152602001604051809103902080549050036106c1565b60005b905060606000846040518082805190602001908083835b6020831015156106fd57805182526020820191506020810190506020830392506106d8565b6001836020036101000a03801982511681845116808217855250505050505090500191505090815260200160405180910390208281548110151561073d57fe5b90600052602060002090600402016001018054600181600116156101000203166002900480601f0160208091040260200160405190810160405280929190818152602001828054600181600116156101000203166002900480156107e25780601f106107b7576101008083540402835291602001916107e2565b820191906000526020600020905b8154815290600101906020018083116107c557829003601f168201915b505050505090506001816040518082805190602001908083835b60208310151561082157805182526020820191506020810190506020830392506107fc565b6001836020036101000a03801982511681845116808217855250505050505090500191505090815260200160405180910390206001016001015492505050919050565b6000835111156109425760408051908101604052808381526020016040805190810160405280428152602001848152508152506001846040518082805190602001908083835b6020831015156108cf57805182526020820191506020810190506020830392506108aa565b6001836020036101000a0380198251168184511680821785525050505050509050019150509081526020016040518091039020600082015181600001908051906020019061091e929190611193565b50602082015181600101600082015181600001556020820151816001015550509050505b505050565b6060806000836040518082805190602001908083835b602083101515610982578051825260208201915060208101905060208303925061095d565b6001836020036101000a0380198251168184511680821785525050505050509050019150509081526020016040518091039020805490506040519080825280602002602001820160405280156109ec57816020015b60608152602001906001900390816109d75790505b509050606060008090505b6000856040518082805190602001908083835b602083101515610a2f5780518252602082019150602081019050602083039250610a0a565b6001836020036101000a038019825116818451168082178552505050505050905001915050908152602001604051809103902080549050811015610cba576000856040518082805190602001908083835b602083101515610aa55780518252602082019150602081019050602083039250610a80565b6001836020036101000a038019825116818451168082178552505050505050905001915050908152602001604051809103902081815481101515610ae557fe5b90600052602060002090600402016001018054600181600116156101000203166002900480601f016020809104026020016040519081016040528092919081815260200182805460018160011615610100020316600290048015610b8a5780601f10610b5f57610100808354040283529160200191610b8a565b820191906000526020600020905b815481529060010190602001808311610b6d57829003601f168201915b50505050508382815181101515610b9d57fe5b90602001906020020181905250818382815181101515610bb957fe5b906020019060200201516040516020018083805190602001908083835b602083101515610bfb5780518252602082019150602081019050602083039250610bd6565b6001836020036101000a038019825116818451168082178552505050505050905001807f2e0000000000000000000000000000000000000000000000000000000000000081525060010182805190602001908083835b602083101515610c765780518252602082019150602081019050602083039250610c51565b6001836020036101000a03801982511681845116808217855250505050505090500192505050604051602081830303815290604052915080806001019150506109f7565b508092505050919050565b60006001826040518082805190602001908083835b602083101515610cff5780518252602082019150602081019050602083039250610cda565b6001836020036101000a0380198251168184511680821785525050505050509050019150509081526020016040518091039020600101600101549050919050565b600080600080846040518082805190602001908083835b602083101515610d7c5780518252602082019150602081019050602083039250610d57565b6001836020036101000a03801982511681845116808217855250505050505090500191505090815260200160405180910390208054905014610e2f5760016000846040518082805190602001908083835b602083101515610df25780518252602082019150602081019050602083039250610dcd565b6001836020036101000a03801982511681845116808217855250505050505090500191505090815260200160405180910390208054905003610e32565b60005b9050600080846040518082805190602001908083835b602083101515610e6d5780518252602082019150602081019050602083039250610e48565b6001836020036101000a038019825116818451168082178552505050505050905001915050908152602001604051809103902082815481101515610ead57fe5b9060005260206000209060040201600201600101541415610ecf576000610f5d565b6000836040518082805190602001908083835b602083101515610f075780518252602082019150602081019050602083039250610ee2565b6001836020036101000a038019825116818451168082178552505050505050905001915050908152602001604051809103902081815481101515610f4757fe5b9060005260206000209060040201600201600101545b915050919050565b60008251118015610f77575060008451115b8015610f84575060008351115b1561118d576000846040518082805190602001908083835b602083101515610fc15780518252602082019150602081019050602083039250610f9c565b6001836020036101000a038019825116818451168082178552505050505050905001915050908152602001604051809103902060606040519081016040528085815260200184815260200160408051908101604052804281526020018581525081525090806001815401808255809150509060018203906000526020600020906004020160009091929091909150600082015181600001908051906020019061106b929190611193565b506020820151816001019080519060200190611088929190611193565b506040820151816002016000820151816000015560208201518160010155505050505060016000856040518082805190602001908083835b6020831015156110e557805182526020820191506020810190506020830392506110c0565b6001836020036101000a038019825116818451168082178552505050505050905001915050908152602001604051809103902080549050036002836040518082805190602001908083835b6020831015156111555780518252602082019150602081019050602083039250611130565b6001836020036101000a0380198251168184511680821785525050505050509050019150509081526020016040518091039020819055505b50505050565b828054600181600116156101000203166002900490600052602060002090601f016020900481019282601f106111d457805160ff1916838001178555611202565b82800160010185558215611202579182015b828111156112015782518255916020019190600101906111e6565b5b50905061120f9190611213565b5090565b61123591905b80821115611231576000816000905550600101611219565b5090565b90565b600082601f830112151561124b57600080fd5b813561125e611259826115a5565b611578565b9150808252602083016020830185838301111561127a57600080fd5b611285838284611615565b50505092915050565b600061129a823561160b565b905092915050565b6000602082840312156112b457600080fd5b600082013567ffffffffffffffff8111156112ce57600080fd5b6112da84828501611238565b91505092915050565b600080604083850312156112f657600080fd5b600083013567ffffffffffffffff81111561131057600080fd5b61131c85828601611238565b925050602083013567ffffffffffffffff81111561133957600080fd5b61134585828601611238565b9150509250929050565b6000806000806080858703121561136557600080fd5b600085013567ffffffffffffffff81111561137f57600080fd5b61138b87828801611238565b945050602085013567ffffffffffffffff8111156113a857600080fd5b6113b487828801611238565b935050604085013567ffffffffffffffff8111156113d157600080fd5b6113dd87828801611238565b92505060606113ee8782880161128e565b91505092959194509250565b60008060006060848603121561140f57600080fd5b600084013567ffffffffffffffff81111561142957600080fd5b61143586828701611238565b935050602084013567ffffffffffffffff81111561145257600080fd5b61145e86828701611238565b925050604061146f8682870161128e565b9150509250925092565b6000611484826115de565b808452602084019350611496836115d1565b60005b828110156114c8576114ac86835161150a565b6114b5826115f4565b9150602086019550600181019050611499565b50849250505092915050565b60006114df826115e9565b8084526114f3816020860160208601611624565b6114fc81611657565b602085010191505092915050565b61151381611601565b82525050565b600060208201905081810360008301526115338184611479565b905092915050565b6000602082019050818103600083015261155581846114d4565b905092915050565b6000602082019050611572600083018461150a565b92915050565b6000604051905081810181811067ffffffffffffffff8211171561159b57600080fd5b8060405250919050565b600067ffffffffffffffff8211156115bc57600080fd5b601f19601f8301169050602081019050919050565b6000602082019050919050565b600081519050919050565b600081519050919050565b6000602082019050919050565b6000819050919050565b6000819050919050565b82818337600083830152505050565b60005b83811015611642578082015181840152602081019050611627565b83811115611651576000848401525b50505050565b6000601f19601f830116905091905056fea265627a7a723058207246a7ccb825b2c000af9f264af2a4634d8dc152969b5f3cde6946666769c0166c6578706572696d656e74616cf50037",
  "source": "pragma solidity >=0.4.21 <0.7.0;\r\npragma experimental ABIEncoderV2;\r\n\r\ncontract CSCAccessLogger {\r\n    struct RequestTime {\r\n        uint256 miningTime; //the timestamp at which the block was mined\r\n        uint256 requestTime; //the timestamp sent from client claiming request time\r\n    }\r\n\r\n    struct CredentialAccess {\r\n        // string SAD;\r\n        string hashes;\r\n        string transactionID; //random value generated by client\r\n        RequestTime accessTime;\r\n    }\r\n\r\n    struct SignRequest {\r\n        string signatures;\r\n        RequestTime signTime;\r\n    }\r\n\r\n    mapping(string => CredentialAccess[]) accessRequests; // credentialID -> uniqueID\r\n    mapping(string => SignRequest) signRequests; //uniqueID -> timestamp\r\n\r\n    mapping(string => uint256) accessRequestsTx; //uniqueID -> index of accessRequests CredentialAccess[]\r\n\r\n    function getLastAccessRequest(string memory _credentialID)\r\n        public\r\n        view\r\n        returns (uint256)\r\n    {\r\n        uint256 lastIndex = accessRequests[_credentialID].length == 0\r\n            ? 0\r\n            : accessRequests[_credentialID].length - 1;\r\n        return\r\n            accessRequests[_credentialID][lastIndex].accessTime.requestTime != 0\r\n                ? accessRequests[_credentialID][lastIndex]\r\n                    .accessTime\r\n                    .requestTime\r\n                : 0;\r\n    }\r\n    function getLastAccessRequestTx(\r\n        string memory _credentialID,\r\n        string memory _transactionID\r\n    ) public view returns (uint256) {\r\n        uint256 index = accessRequestsTx[_transactionID];\r\n        return\r\n            accessRequests[_credentialID][index].accessTime.requestTime != 0\r\n                ? accessRequests[_credentialID][index].accessTime.requestTime\r\n                : 0;\r\n    }\r\n    // function getAllAccessRequestTx(\r\n    //     string memory _credentialID,\r\n    //     string[] memory _transactionIDs\r\n    // ) public view returns (uint256) {\r\n    //     string[] memory accessTimes = new string[](_transactionIDs.length - 1);\r\n\r\n    //     for (uint256 i = 0; i < _transactionIDs.length; i++) {\r\n    //         uint256 index = accessRequestsTx[_transactionIDs[i]];\r\n\r\n    //     }\r\n    //     return\r\n    //         accessRequests[_credentialID][index].accessTime.requestTime != 0\r\n    //             ? accessRequests[_credentialID][index].accessTime.requestTime\r\n    //             : 0;\r\n    // }\r\n\r\n    function getLastSignRequest(string memory _credentialID)\r\n        public\r\n        view\r\n        returns (uint256)\r\n    {\r\n        uint256 lastIndex = accessRequests[_credentialID].length == 0\r\n            ? 0\r\n            : accessRequests[_credentialID].length - 1;\r\n        string memory transactionID = accessRequests[_credentialID][lastIndex]\r\n            .transactionID;\r\n        return signRequests[transactionID].signTime.requestTime;\r\n    }\r\n\r\n    function getSignRequest(string memory _transactionID)\r\n        public\r\n        view\r\n        returns (uint256)\r\n    {\r\n        return signRequests[_transactionID].signTime.requestTime;\r\n    }\r\n\r\n    function getAllAccessRequests(string memory _credentialId)\r\n        public\r\n        view\r\n        returns (uint256[] memory)\r\n    {\r\n        uint256[] memory accessTimes = new uint256[](\r\n            accessRequests[_credentialId].length\r\n        );\r\n\r\n        for (uint256 i = 0; i < accessRequests[_credentialId].length; i++)\r\n            accessTimes[i] = (\r\n                accessRequests[_credentialId][i].accessTime.requestTime\r\n            );\r\n\r\n        return accessTimes;\r\n    }\r\n    \r\n    function getAllTx(string memory _credentialId)\r\n        public\r\n        view\r\n        returns (string memory)\r\n    {\r\n\r\n        string[] memory txIds = new string[](\r\n            accessRequests[_credentialId].length\r\n        );\r\n        string memory result;\r\n\r\n        for (uint256 i = 0; i < accessRequests[_credentialId].length; i++){\r\n            txIds[i] = (accessRequests[_credentialId][i].transactionID);\r\n            result=string(abi.encodePacked(result,\".\",txIds[i]));\r\n        }\r\n        return (result);\r\n    }\r\n    function registerAccessRequest(\r\n        string memory _credentialID,\r\n        string memory _hashes,\r\n        string memory _transactionID,\r\n        uint256 _timestamp\r\n    ) public {\r\n        if (\r\n            bytes(_transactionID).length > 0 &&\r\n            bytes(_credentialID).length > 0 &&\r\n            bytes(_hashes).length > 0\r\n        ) {\r\n            accessRequests[_credentialID].push(\r\n                CredentialAccess({\r\n                    hashes: _hashes,\r\n                    transactionID: _transactionID,\r\n                    accessTime: RequestTime({\r\n                        miningTime: now,\r\n                        requestTime: _timestamp\r\n                    })\r\n                })\r\n            );\r\n            accessRequestsTx[_transactionID] =\r\n                accessRequests[_credentialID].length -\r\n                1;\r\n        }\r\n    }\r\n\r\n    function registerSignRequest(\r\n        string memory _transactionID,\r\n        string memory _signatures,\r\n        uint256 _timestamp\r\n    ) public {\r\n        if (bytes(_transactionID).length > 0) {\r\n            signRequests[_transactionID] = SignRequest({\r\n                signatures: _signatures,\r\n                signTime: RequestTime({\r\n                    miningTime: now,\r\n                    requestTime: _timestamp\r\n                })\r\n            });\r\n        }\r\n    }\r\n\r\n    // function set(string memory _greeting) public {\r\n    //     greeting = _greeting;\r\n    // }\r\n\r\n    // function get() public view returns (string memory){\r\n    //     return greeting;\r\n    // }\r\n\r\n}\r\n",
  "sourcePath": "C:\\Stuff\\Projects\\Master\\client\\src\\main\\ui\\contracts\\CSCAccessLogger.sol",
  "compiler": {
    "name": "solc",
    "version": "0.5.1+commit.c8a2cb62.Emscripten.clang"
  },
  "schemaVersion": "3.0.23",
  "updatedAt": "2020-02-04T16:10:26.160Z",
  "devdoc": {
    "methods": {}
  },
  "userdoc": {
    "methods": {}
  }
}