{
  "contractName": "POCAccessLogger",
  "abi": [
    {
      "constant": false,
      "inputs": [
        {
          "name": "_user",
          "type": "string"
        },
        {
          "name": "_accessTime",
          "type": "uint256"
        }
      ],
      "name": "set",
      "outputs": [],
      "payable": false,
      "stateMutability": "nonpayable",
      "type": "function"
    },
    {
      "constant": true,
      "inputs": [
        {
          "name": "_user",
          "type": "string"
        }
      ],
      "name": "getAll",
      "outputs": [
        {
          "name": "",
          "type": "uint256[]"
        }
      ],
      "payable": false,
      "stateMutability": "view",
      "type": "function"
    },
    {
      "constant": true,
      "inputs": [
        {
          "name": "_user",
          "type": "string"
        }
      ],
      "name": "getLast",
      "outputs": [
        {
          "name": "",
          "type": "uint256"
        }
      ],
      "payable": false,
      "stateMutability": "view",
      "type": "function"
    }
  ],
  "bytecode": "0x608060405234801561001057600080fd5b5061071f806100206000396000f3fe608060405260043610610051576000357c01000000000000000000000000000000000000000000000000000000009004806304ea6bb914610056578063420dd15a146100935780638a42ebe9146100d0575b600080fd5b34801561006257600080fd5b5061007d60048036036100789190810190610508565b6100f9565b60405161008a9190610607565b60405180910390f35b34801561009f57600080fd5b506100ba60048036036100b59190810190610508565b6102d5565b6040516100c79190610629565b60405180910390f35b3480156100dc57600080fd5b506100f760048036036100f29190810190610549565b6103d8565b005b6060806000836040518082805190602001908083835b602083101515610134578051825260208201915060208101905060208303925061010f565b6001836020036101000a0380198251168184511680821785525050505050509050019150509081526020016040518091039020805490506040519080825280602002602001820160405280156101995781602001602082028038833980820191505090505b50905060008090505b6000846040518082805190602001908083835b6020831015156101da57805182526020820191506020810190506020830392506101b5565b6001836020036101000a0380198251168184511680821785525050505050509050019150509081526020016040518091039020805490508110156102cb576000846040518082805190602001908083835b602083101515610250578051825260208201915060208101905060208303925061022b565b6001836020036101000a03801982511681845116808217855250505050505090500191505090815260200160405180910390208181548110151561029057fe5b90600052602060002090600202016001015482828151811015156102b057fe5b906020019060200201818152505080806001019150506101a2565b5080915050919050565b600080826040518082805190602001908083835b60208310151561030e57805182526020820191506020810190506020830392506102e9565b6001836020036101000a038019825116818451168082178552505050505050905001915050908152602001604051809103902060016000846040518082805190602001908083835b60208310151561037b5780518252602082019150602081019050602083039250610356565b6001836020036101000a038019825116818451168082178552505050505050905001915050908152602001604051809103902080549050038154811015156103bf57fe5b9060005260206000209060020201600101549050919050565b6000826040518082805190602001908083835b60208310151561041057805182526020820191506020810190506020830392506103eb565b6001836020036101000a03801982511681845116808217855250505050505090500191505090815260200160405180910390206040805190810160405280428152602001838152509080600181540180825580915050906001820390600052602060002090600202016000909192909190915060008201518160000155602082015181600101555050505050565b600082601f83011215156104b157600080fd5b81356104c46104bf82610671565b610644565b915080825260208301602083018583830111156104e057600080fd5b6104eb8382846106d6565b50505092915050565b600061050082356106cc565b905092915050565b60006020828403121561051a57600080fd5b600082013567ffffffffffffffff81111561053457600080fd5b6105408482850161049e565b91505092915050565b6000806040838503121561055c57600080fd5b600083013567ffffffffffffffff81111561057657600080fd5b6105828582860161049e565b9250506020610593858286016104f4565b9150509250929050565b60006105a8826106aa565b8084526020840193506105ba8361069d565b60005b828110156105ec576105d08683516105f8565b6105d9826106b5565b91506020860195506001810190506105bd565b50849250505092915050565b610601816106c2565b82525050565b60006020820190508181036000830152610621818461059d565b905092915050565b600060208201905061063e60008301846105f8565b92915050565b6000604051905081810181811067ffffffffffffffff8211171561066757600080fd5b8060405250919050565b600067ffffffffffffffff82111561068857600080fd5b601f19601f8301169050602081019050919050565b6000602082019050919050565b600081519050919050565b6000602082019050919050565b6000819050919050565b6000819050919050565b8281833760008383015250505056fea265627a7a72305820ba2486f38a6af2c09e307278c6d9319cd7983f2f2558b7417d353924a79512476c6578706572696d656e74616cf50037",
  "source": "pragma solidity >=0.4.21 < 0.7.0;\r\npragma experimental ABIEncoderV2; \r\n\r\ncontract POCAccessLogger {\r\n\r\n    struct AccessTime {\r\n        uint256 miningTime;\r\n        uint256 accessTime;\r\n    }\r\n    \r\n    mapping(string => AccessTime[]) accessLog; //map to hold last user's access time\r\n    mapping(string => uint) accessLogCount;\r\n\r\n    function set(string memory _user, uint256 _accessTime) public {\r\n        accessLog[_user].push(AccessTime({\r\n            miningTime: now,\r\n            accessTime: _accessTime\r\n        }));\r\n        // accessLogCount[_user]++;\r\n    }\r\n\r\n    function getAll(string memory _user) public view returns (uint[] memory){\r\n        uint[] memory accessTimes = new uint[](accessLog[_user].length);\r\n\r\n        for(uint i = 0; i<accessLog[_user].length; i++) \r\n            accessTimes[i] = (accessLog[_user][i].accessTime);\r\n\r\n        return accessTimes;\r\n    }\r\n    \r\n    function getLast(string memory _user) public view returns (uint){\r\n        return accessLog[_user][accessLog[_user].length-1].accessTime;\r\n    }\r\n} ",
  "sourcePath": "C:\\Stuff\\Projects\\Master\\client\\src\\main\\ui\\contracts\\POCAccessLogger.sol",
  "compiler": {
    "name": "solc",
    "version": "0.5.1+commit.c8a2cb62.Emscripten.clang"
  },
  "schemaVersion": "3.0.23",
  "updatedAt": "2020-02-04T16:10:26.172Z",
  "devdoc": {
    "methods": {}
  },
  "userdoc": {
    "methods": {}
  }
}